:100000000C94CD030C9405040C9405040C94050485
:100010000C9405040C9405040C9405040C9405043C
:100020000C9405040C9405040C945C2B0C94302C5B
:100030000C94D8250C9405040C9405040C94050428
:100040000C9405040C9405040C9405040C9405040C
:100050000C9405040C945F260C9405040C94050480
:100060000C9405040C9405040C9405040C940504EC
:100070000C9405040C9405040C9405040C940504DC
:100080000C9405040C9405040C9405040C940504CC
:100090000C9405040C9405040C9405040C940504BC
:1000A0000C9405040C9405040C940504B0000000A5
:1000B00000010000FFFF0000000029001E001F00DB
:1000C0002000210022002300240025002600270014
:1000D0002D002E002A002A002B0014001A00080010
:1000E000150017001C0018000C00120013002F0050
:1000F000300031004C0039210400160007000900CF
:100100000A000B000D000E000F0033003400320017
:1001100028004A00E10064001D001B0006001900D1
:10012000050011001000360037003800E5005200CD
:100130004D00E000E300E2000000000000002C00A1
:10014000000000000000E4002152500051004F0068
:1001500001000578207821780100010001000100EC
:100160000100010001000100010001000100010087
:100170000100010001000100010001000100010077
:100180000100010001000100010001000100010067
:100190000100010001000100010001000100010057
:1001A0000100010001000100010001000100010047
:1001B0000100010001000100010001000100010037
:1001C0000100010001000100010001000100000028
:1001D000000000002C0000000000000001000100F1
:1001E000010001000100010005782078217801005C
:1001F00001000100010001000100010001000100F7
:1002000001000100010001000100010001000100E6
:1002100001000100010001000100010001000100D6
:1002200001000100010001000100010001000100C6
:1002300001000100010001000100010001000100B6
:1002400001000100010001000100010001000100A6
:100250000100010001000100010001000100010096
:10026000010001000000000000002C000000000060
:1002700000000100010001000100010001000578FB
:100280002078217801000100010001000100010037
:100290000100010001000100010001000100010056
:1002A0000100010001000100010001000100010046
:1002B0000100010001000100010001000100010036
:1002C0000100010001000100010001000100010026
:1002D0000100010001000100010001000100010016
:1002E0000100010001000100010001000100010006
:1002F00001000100010001000100000000000000F9
:100300002C000000000000000100010001000100BD
:1003100001001E0F0500047F3F1F64321464321475
:10032000783C1E1E140A052223252628292A2C2D56
:100330002F3032333536383A3B3D3E404243454715
:10034000494A4C4E5051535557595A5C5E6062644D
:100350006668696B6D6F71737577797B7D7F81835B
:100360008587898A8C8E90929496989A9C9E9FA15C
:10037000A3A5A7A8AAACAEAFB1B3B4B6B8B9BBBC7D
:10038000BEBFC1C2C3C5C6C7C9CACBCCCDCED0D1F2
:10039000D2D2D3D4D5D6D7D7D8D9D9DADADBDBDBEA
:1003A000DCDCDCDCDCDDDDDDDDDCDCDCDCDCDBDB8B
:1003B000DBDADAD9D9D8D7D7D6D5D4D3D2D2D1D0DF
:1003C000CECDCCCBCAC9C7C6C5C3C2C1BFBEBCBBDC
:1003D000B9B8B6B4B3B1AFAEACAAA8A7A5A3A19F54
:1003E0009E9C9A98969492908E8C8A898785838118
:1003F0007F7D7B79777573716F6D6B6968666462F9
:10040000605E5C5A5957555351504E4C4A494745C6
:100410004342403E3D3B3A3836353332302F2D2C67
:100420002A292826252322FFAA7F55400001010101
:1004300001010101010102020202020202020203A1
:100440000303030303030304040404040404050571
:100450000505050606060606070707070708080834
:1004600008090909090A0A0A0B0B0B0C0C0C0D0DE3
:100470000D0E0E0E0F0F0F1010111111121213137B
:100480001414151516161717181819191A1A1B1BF4
:100490001C1D1D1E1E1F2020212222232424252650
:1004A00026272829292A2B2C2D2D2E2F3031323288
:1004B000333435363738393A3B3C3D3E3F40414294
:1004C000434445464748494A4C4D4E4F505153547A
:1004D000555658595A5B5D5E5F616264656668692E
:1004E0006B6C6D6F7072737577787A7B7D7E8082AE
:1004F000838587888A8C8E8F91939596989A9C9EF7
:10050000A0A2A3A5A7A9ABADAFB1B3B5B7BABCBE06
:10051000C0C2C4C6C9CBCDCFD1D4D6D8DBDDDFE2D3
:10052000E4E7E9EBEEF0F3F5F8FAFDFF0000000078
:10053000000000002A2B280000000000000000003E
:100540000000000000000029000000002C1E3420E4
:10055000212224342627252E362D3738271E1F200A
:100560002122232425263333362E37381F0405064F
:100570000708090A0B0C0D0E0F1011121314151693
:100580001718191A1B1C1D2F3130232D3504050691
:100590000708090A0B0C0D0E0F1011121314151673
:1005A0001718191A1B1C1D2F3130354C0000000084
:1005B000000000000000000000000000000000003B
:1005C000000000000000000000000000000000002B
:1005D0007E0F00D4FFFFFFC7000000781E03440019
:1005E000650065006D0065006E0031003700200079
:1005F00044006500630061006E00000012034400C7
:10060000650065006D0065006E0031003700000078
:100610000403090409025B00030100A0FA090400B5
:10062000000103010100092111010001224000071E
:10063000058103080001090401000203000000090C
:100640002111010001222200070582032000010779
:100650000503032000010904020001030000000952
:10066000211101000122B6000705840320000112B8
:10067000010002000000084C4D016501000102006C
:10068000010660FF0961A1010962150026FF0095BE
:1006900020750881020963150026FF009520750862
:1006A0009102C005010902A10185020901A100050D
:1006B0000919012908150025019508750181020510
:1006C00001093009311581257F95027508810609D8
:1006D000381581257F950175088106050C0A3802B9
:1006E0001581257F950175088106C0C00501098027
:1006F000A101850319012AB700150126B70095014C
:1007000075108100C0050C0901A101850419012A99
:10071000A002150126A002950175108100C00501F7
:100720000906A1018506050719E029E7150025013D
:100730009508750181020507190029EF15002501AB
:1007400095F07501810205081901290595057501C6
:100750009102950175039101C005010906A10105EA
:100760000719E029E7150025019508750181029513
:1007700001750881010507190029FF150026FF00F2
:10078000950675088100050819012905950575016B
:100790009102950175039101C00011241FBECFEF96
:1007A000DAE0DEBFCDBF04B603FE18C08091770447
:1007B00090917804A0917904B0917A048730904B9D
:1007C000A740B04B59F4109277041092780410921D
:1007D000790410927A04E0E0F8E3099511E0A0E0D2
:1007E000B1E0E0E1F0E602C005900D92A23EB10753
:1007F000D9F724E0A2EEB1E001C01D92A737B207FD
:10080000E1F70E9415130C949F2F0C9400008CEAC2
:1008100090E090938C0380938B03089581FB66276F
:1008200060F980E00E94EC1681E0089584E008956C
:100830008430B8F46530A8F44F3098F450E09FE06D
:10084000699F400D511D1124FA019BE4899FE00D21
:10085000F11D1124EE0FFF1FE654FF4F8591949177
:10086000089580E090E0089581E0089581E0089582
:100870000E943604089508950E943B040895A5E05F
:10088000B0E0E5E4F4E00C94882E49835A8330917B
:10089000E90189819A81311119C0662399F02223D7
:1008A00089F00E94EA09182F682F89819A810E9495
:1008B000C60969817A81812F0E9489102596E3E01B
:1008C0000C94A42E0E94D809182FF3CF0E94EA0995
:1008D00069817A81F1CFFC01262F408151816281AB
:1008E000738184810E943F04089581E00895CF932D
:1008F000DF93EC0160E00E946B04BE010E943C04A7
:10090000DF91CF910895E1E0F0E0DF0102C0AA0F8E
:10091000BB1F6A95E2F7BD01DF0102C0AA0FBB1F32
:100920004A95E2F76A2B01C0EE0F2A95EAF7962F57
:100930009823961302C08E2B0895E0958E23089578
:10094000242F462F682F809108020E9483040E9462
:10095000280908950E94BA1108950E94BE110895B1
:1009600008950E94BC080E94B0042FEF84E39CE02D
:10097000215080409040E1F700C0000008950E949F
:10098000B1040E94832608950E94B1040E94A72604
:1009900008950F931F93CF93DF938C0161E00E9422
:1009A0006B04EC01B8010E94911E811106C080E029
:1009B000DF91CF911F910F910895B801CE010E9450
:1009C00038048823A1F3B801CE010E94F9238823BB
:1009D00071F3B801CE010E942020882341F3B801B1
:1009E000CE010E946B23882311F3B801CE010E942F
:1009F0008B1D8823E1F2F8018281882361F0C330E6
:100A0000FCE7DF07E9F058F4C115ECE7DE07A9F0D1
:100A1000C130DC47B9F0C8010E943404C9CFCB35DE
:100A20008CE7D807A9F0CC35ECE7DE0771F0CA35C2
:100A3000DC4789F70E94160EEECF0E94BF04B7CFA5
:100A40000E941E0E0E94C404B2CF0E940C0EE3CF7F
:100A50000E941A0EE0CF0E94B4250E9454050E9405
:100A6000CA1B08950E9458050E94AB1C0E94B9251C
:100A7000089508950895CF93DF93D82F0E940E0410
:100A8000C82F882319F08D2F0E943A058C2FDF91F3
:100A9000CF9108950895CF93C82F0E9439058C2FC8
:100AA0000E943B05CF91089580E00E944B05089578
:100AB0000E9447240E944B050895CF930E9447242B
:100AC000C82F8091E4018C1779F0C093E4010E9453
:100AD00044266093E5017093E6018093E7019093CB
:100AE000E8018C2F0E944B05CF910895ABE0B0E058
:100AF000ECE7F5E00C94892E4F83588769877A8755
:100B00008B8761110E94570D1E821D8285E0FE01B8
:100B10003796DE01119601900D928A95E1F78C814E
:100B20009D81892B61F449815A816B817C818D8102
:100B30009E810E947F0C2B96E2E00C94A52E898169
:100B40009A8189238F3F79F3CE0101960E94750423
:100B50008111E9CFF0CFFC01808191810E94170AB9
:100B60000895662329F00E9499130E946C14089539
:100B70000E94F313FACFCF93C82F8823B9F08CEFDC
:100B80008C0F813AA8F46C2F80910401909105019B
:100B90000E94DA24882329F08C2F0E94170D0E94CE
:100BA000780D8C2F0E940F0D0E94780DCF91089523
:100BB00080E28C0F883048F4C77081E001C0880F54
:100BC000CA95EAF70E943A0DEFCFEBE5EC0FE33060
:100BD00040F4F0E0E45AFE4F808190E00E947C24D3
:100BE000E5CFE8E5EC0FE93150F4F0E0EE0FFF1F40
:100BF000E65DFE4F808191810E94A124D7CF83E3DF
:100C00008C0F833198F661E08C2F0E94B105CECF16
:100C1000882381F19CEF980F913A28F40E94170DD8
:100C20000E94780D089590E2980F983050F48770E4
:100C300091E001C0990F8A95EAF7892F0E94400D33
:100C4000EFCF9BE5980F933028F490E080E00E946E
:100C50007C24089598E5980F993128F490E080E07D
:100C60000E94A124089593E3980F933118F460E053
:100C70000E94B10508951F93CF93DF93182FEB01C6
:100C80000E94BB05209739F4812F0E940806DF914E
:100C9000CF911F9108958FE99FE00197F1F700C070
:100CA00000002197EFCF70E060E0893311F460E538
:100CB00070E00E943B060895882321F00E943A0DBF
:100CC0000E94780D0895882321F00E94400D0E9413
:100CD000780D0895B0E0A0E0E0E7F6E00C94822EF5
:100CE0006C01D62FC72FFC011281058102950F7070
:100CF0000E94300DE82E8823E9F0E12E1123D1F077
:100D00008C2F807F803451F080E28D0F8830F8F096
:100D1000011104C08C2F807E8032C9F08091C803FD
:100D200082FF15C082E00E94DB0D0E94300D91E031
:100D3000E82EE926BC2EB2949FE0B922FBE0FB1519
:100D4000B8F1EB2DF0E0EF55F04D0C943B2EE12C7B
:100D5000F1CF0C2F0F70C07F11F00295007F11238F
:100D600099F0002359F080E28D0F883010F0D111F6
:100D700007C0802F0E943A0D0E94780D8D2F63C00E
:100D8000802F0E944A0DF8CF8D2F0E940806002365
:100D900079F080E28D0F883010F0D11104C0802FDF
:100DA0000E94400D03C0802F0E94500D0E94780DBC
:100DB0002B2D2850330B2430310520F40E9447247A
:100DC0000E944B05EE2089F00E942C0D80FD0DC085
:100DD000F60112820E94260D0E943A09C6010E9465
:100DE0007C080E94260D0E944609CDB7DEB7E9E0D7
:100DF0000C949E2E2C2F2F70F22EC07FC03219F033
:100E0000F29480EFF822DD2381F0D13009F449C05B
:100E1000112309F451C0002309F448C0F60185816B
:100E200080FFACCF8F70858341C08091C80382FD65
:100E300015C0112359F0FF2029F08F2D0E943A0D83
:100E40000E94780D80E00E94BB05B2CF80E00E9436
:100E50000806FF2009F4ACCF8F2DA2CF112381F01B
:100E6000011106C00E945A0D8F290E945C06A0CF76
:100E70000130C1F70E945A0D8F290E94610D98CF51
:100E8000011106C00E946E0D8F2D0E94630690CF47
:100E9000013009F48DCF8F2D0E9463060E946E0DE4
:100EA00087CF112329F0063008F082CF8F2DDDCFB8
:100EB000053008F07DCFE8CF002331F3D93349F472
:100EC000FFEF27EE33E0F15020403040E1F700C063
:100ED00000008D2F0E9408066BCF8C2F869586957B
:100EE000837069F0813009F063CF8D2F9C2F937050
:100EF000111102C080E090E00E94A12459CF8D2FF3
:100F00009C2F9370111102C080E090E00E947C241D
:100F10004FCF612F8D2F0E94B1054ACF8C2F837048
:100F200079F5111145CF4D2F429546954770440FE5
:100F3000440F8D2F8F70042E01C0880F0A94EAF79A
:100F40002D2F2071D4FF07C02FE030E001C0220F09
:100F50004A95EAF72095C695C695C370822BC23094
:100F600049F058F4C13019F00E94160921CF0E94AF
:100F700010091ECF0E941C091BCF0E940D0918CF1B
:100F80008695112311F08C2F8170882309F410CFDE
:100F90004D2F429546954770440F440F8D2F8F700B
:100FA000042E01C0880F0A94EAF72D2F2071D4FF78
:100FB00007C02FE030E001C0220F4A95EAF72095E4
:100FC000C695C695C370822BC23049F058F4C13023
:100FD00019F00E946509ECCE0E945F09E9CE0E94DB
:100FE0006B09E6CE0E942809E3CECF70112329F0C9
:100FF0008C2F0E943A098D2F38CF8D2F0E946306C7
:101000008C2F0E944609D4CED23F41F160F4D03FEC
:10101000B9F0D13F81F0112309F446C00111AECEE1
:101020008C2F8F711FC0D33F01F1D43FA1F7809166
:10103000C80382FD24C08C2F8F71112311F312C0BD
:10104000112341F0053008F0B3CE8C2F8F710E9430
:101050005309AECE063008F0ABCEF7CF8C2F8F7190
:101060001111CFCF0E943A09A3CE112329F08C2F62
:101070008F710E9431099CCE0E942D0999CE1123B7
:1010800049F0CF718C2F0E943A0963E08C2F0E94A7
:10109000BD0D8ECE81E00E94DB0D023008F488CEBB
:1010A00082E00E94DB0D84CE002359F0D93309F091
:1010B00010CF8FEF97EEE3E081509040E040E1F7F2
:1010C00006CF8C2F8F719DCF0F931F93CF93DF93FC
:1010D000EC01688179818A810E94220A8C010E9438
:1010E00071090E940C09B801CE010E946A06DF91C5
:1010F000CF911F910F910895CF93DF93EC018B81D6
:101100009C81892B29F08881998189238F3F51F413
:10111000DF91CF910895CE010E946408CE010E9414
:101120007704F6CFCE010E94C9048111F4CF0E944A
:10113000300D882369F38A81882351F38091C80395
:1011400082FFE6CF82E00E94DB0DE2CF90E080E0FC
:101150000E947C2490E080E00E94A1240E94570D10
:101160000E94780D0E9488140E946C1408950E94B9
:101170001F0D0E94A60808950E94470D0E94B708FF
:10118000089592959F70963091F058F4925F9F70F9
:10119000923058F4803F19F030F4883E30F481E00A
:1011A00008959A5FF4CF843FD1F380E00895883E9C
:1011B000B0F3813FD1F7F3CFFC0183819481892B78
:1011C00029F08081918189238F3F11F480E0089577
:1011D000808191810E94170A0E94C1080895A5E0AC
:1011E000B0E0E5EFF8E00C94892E2596E2E00C944F
:1011F000A52EA6E0B0E0EFEFF8E00C94892E26963D
:10120000E2E00C94A52E08950E94030908950E941F
:10121000040980930902089508950E94070908951A
:1012200090910902892B0E94070908959091090263
:1012300089230E94070908959091090289270E9435
:10124000070908950E94030908950E94220908953C
:101250000E94250980930802089580E00E942809D1
:10126000089591E001C0990F8A95EAF7892F0E94AD
:101270002809089521E030E001C0220F8A95EAF79D
:1012800080910802822B0E942809089521E030E015
:1012900001C0220F8A95EAF72095809108028223E7
:1012A0000E942809089521E030E001C0220F8A95AC
:1012B000EAF78091080282270E94280908959091F8
:1012C0000802892B0E942809089590910802892319
:1012D0000E94280908959091080289270E942809F0
:1012E00008950895262F277091E001C0990F2A953F
:1012F000EAF723E0769567952A95E1F7FB01EE0F73
:10130000FF1FE60FF71FE40FF51F50E040E0682FC6
:1013100070E08191DF0111979B01042E02C0369588
:1013200027950A94E2F72170219528272923282759
:101330002C934F5F5F4F4330510559F70895A82F05
:10134000A77023E0969587952A95E1F7FC01EE0FAB
:10135000FF1FE80FF91FE60FF71F50E040E080E0A5
:10136000219130E00A2E02C0369527950A94E2F7C3
:1013700021703327042E01C0220F0A94EAF7822B32
:101380004F5F5F4F4330510559F70895262F953031
:1013900070F48F3060F4682F70E08FE0989F600DDC
:1013A000711D11244AEE51E0822F0E9472090895A6
:1013B000292F953068F48F3058F490E06AEE71E090
:1013C0003FE0239F800D911D11240E949F090895E5
:1013D00080E00895CF92DF92FF920F931F93CF93F7
:1013E000DF936C010091080280910902082BC3E091
:1013F000D0E010E0FC2EC8010C2E02C09595879518
:101400000A94E2F780FD0CC02197A0F7F12C8F2DF4
:10141000DF91CF911F910F91FF90DF90CF900895B2
:10142000B6018C2F0E949510019771F3F0CFCF93E6
:10143000DF93EC010E94EA09BE010E949510DF9142
:10144000CF9108951F93CF93DF93EB019091E90122
:10145000992339F0CB010E94170ADF91CF911F9198
:101460000895882369F0CB010E94EA09182F682F9C
:10147000CE010E94C609BE01812F0E949510EDCFBA
:10148000CB010E94D809182FF6CF1F93CF93DF937B
:10149000C0910A0216E080910B028C1304C0DF9108
:1014A000CF911F910895D0E01C9FF0011D9FF00D7A
:1014B0001124E45FFD4F40815181628173818481F9
:1014C00095810E94F9082196C770E5CF40913C02B2
:1014D00050913D0260913E0270913F028091400226
:1014E000909141020E94F908089520910A0290917A
:1014F0000B0256E0291302C080E0089530E0529FAD
:10150000F001539FF00D1124E45FFD4F71817613BC
:1015100006C07081781303C07281741304C02F5FFA
:101520003F4F2770E7CF81E008951F93CF93DF935C
:1015300080914102807F09F04BC080913E02882358
:1015400009F446C080910A02C0910B0240913C020E
:1015500050913D0260913F0270914002D42FD523FB
:1015600016E0C817A9F190E061157105A9F1DF3FF8
:1015700099F1189FF001199FF00D1124DF01A45F6C
:10158000BD4F11962C911197251326C02C91241331
:1015900023C012962C91129721111EC013962D91E3
:1015A0003C91261B370B283C3105B0F48091410259
:1015B0008F70806180934102EF5EFD4F80818F705C
:1015C000806180838CE392E00E947C080E94450A3F
:1015D000DF91CF911F91089501968770C2CFA1E14D
:1015E000B0E0E5EFFAE00C947F2E8C0185E0F80185
:1015F000DE011D9601900D928A95E1F7F801F280C7
:101600008CE3A82E82E0B82E40913F025091400218
:101610004115510509F45AC190913C0220913D02B7
:10162000892F82238F3F09F451C1C080D1808380EC
:101630009480E0903E02B401641B750BEE2009F427
:10164000F6C080914102382F307F683C710508F068
:10165000AFC031117AC0EF2C2D1116C09C1114C0EF
:10166000F11012C08F708061809341020E94660A5F
:10167000C5010E947C0880914102F80185838E2D6E
:101680006196ECE00C949B2E81149104C9F18C2D91
:101690008D218F3FA9F181E08F2580FF05C04F2D5F
:1016A0006D2D8C2D0E94750A8114910459F18C2D99
:1016B0008D218F3F39F181E08F25F82FF170BF2EFA
:1016C00080FF39C04F2D6D2D8C2D0E94750AA82EDC
:1016D000811131C0CD86DE868D859E850E94170AD8
:1016E000292F22952F70243078F49F702230A8F093
:1016F0009923B9F0F8019581907F99F4EA2CBFCF36
:1017000080E0CBCF80E0D9CF2A5F2F70223068F005
:10171000C8010E947C08AB2CF1CF992311F08823DB
:1017200069F3805E883050F3F3CF803F38F3815FF8
:10173000833070F7E3CFFF2009F4A1CF80914102FD
:10174000816080934102E12C9ACF2D1105C09C113C
:1017500003C0FF2009F486C0C8010E94DC0888236A
:1017600019F1FF2009F180914102803270F020913F
:101770003C0230913D0238872F8319869B868A86EA
:101780008C87CE0107960E947C0886E0F801ACE3C6
:10179000B2E001900D928A95E1F70E94950A0E94AD
:1017A000660AEE24E3946BCFC8010E947C08F9CF4F
:1017B000311114C0782D998A888AA6016F2D8989E4
:1017C0000E94EF088CE392E00E947C0886E0F5011D
:1017D00011928A95E9F70E94660AB5CF2D110EC0C5
:1017E0009C110CC0F1100AC08583C8010E947C08BE
:1017F00086E0F50111928A95E9F741CFC8010E9470
:10180000DC08882389F2FF2079F28091410280323E
:1018100008F4BBCF20913C0230913D023A832983EA
:101820001B829D828C828E83CE010196ACCF683C58
:10183000710508F03DC0EF2CFF2009F4B5CF2D1144
:1018400029C09C1127C08091410280FD1AC0982FA9
:10185000907FB9F08583903F31F0982F907F905F13
:101860008F70892B8583C8010E947C0886E0F8016F
:10187000ACE3B2E001900D928A95E1F70E94660A0E
:10188000FECE86E0F801ACE3B2E001900D928A95BD
:10189000E1F7F5CEC8010E94DC08811176CF809176
:1018A0004102816080934102C8010E947C08E7CE1A
:1018B000782D998A888AA6016F2D89890E94EF0860
:1018C00086E0F50111928A95E9F7D8CFFF2009F457
:1018D0006BCFC8010E94DC08E82E882309F464CF8E
:1018E00086E0F801ACE3B2E001900D928A95E1F751
:1018F0008CE392E00E94AB050E94950ABFCFACE05A
:10190000B0E0E5E8FCE00C94882E4F8358876987A7
:101910007A878B879C87CE0107960E94EF0A8823DF
:10192000B1F08A859B85892B39F04F815885842FAA
:1019300085238F3F09F06CC016E080910A029091D8
:101940000B02891343C02C96E3E00C94A42E86E08E
:10195000FE013796DE01119601900D928A95E1F70E
:101960008A859B85892B41F38F81988589238F3FB9
:1019700019F320910B0230E0C90101968770992775
:1019800040910A024817190671F40E94BC0810928F
:101990000B0210920A0286E0ECE3F2E0DF011D92F6
:1019A0008A95E9F7C9CF96E0929FD001939FB00D39
:1019B0001124A45FBD4FFE01319601900D929A95BE
:1019C000E1F780930B020E94450AB6CF819FC001C8
:1019D0001124845F9D4F0E94EF0A882309F4B3CF3E
:1019E000E0910A021E9FF0011124E45FFD4F408147
:1019F000518162817381848195810E94F90880916F
:101A00000A0290E001968770992780930A0295CF89
:101A100069857A858B859C850E94F9088DCF682F12
:101A200080910401909105010E945A250895682F24
:101A300080910401909105010E946825089580918C
:101A40000401909105010E9476250895809162021B
:101A50008595859585950895809162028770089592
:101A600090916202977081E009F480E0089580917E
:101A70008502089590918502892B809385020895AF
:101A800080959091850298239093850208951092F5
:101A90008502089590918402892B80938402089591
:101AA00080959091840298239093840208951092D7
:101AB0008402089580916302089508950E945D0D47
:101AC00008959091C80392FF08C0909163029817FF
:101AD00021F0809363020E945E0D0895809163025D
:101AE000882329F01092630280E00E945E0D089521
:101AF000CF93DF93E0910401F0910501809185027D
:101B00008083E0910401F09105018081909184022D
:101B1000892B808390916302992381F0E0910401E5
:101B2000F09105018081892B80838091040190913F
:101B300005010E94C62481110E946E0DC09104010E
:101B4000D091050140E250E062E472E0CE010E94D3
:101B5000222F892B59F080E2FE01A2E4B2E001902D
:101B60000D928A95E1F7CE010E945424DF91CF9126
:101B7000089508950E94B90D08959091C80392FFA9
:101B800011C098E0899F90011124622B609362023A
:101B90000E943A09809162028595859585950E94FB
:101BA000BA0D08950E943A0908951092620280E0E9
:101BB0000E94BA0D089590916202809589238093C6
:101BC0006202282F277091F4282F082E000C330B67
:101BD0009217130659F09091C80392FF07C085959C
:101BE000859585950E9446090E94D50D089590918E
:101BF000C80392FB222720F9281769F080FB92F98D
:101C00009093C8038091C7039091C8030E94400E2F
:101C100082E00E94DB0D08958091C80382FB882733
:101C200080F991E089270E94F70D089581E00E94D4
:101C3000F70D089580E00E94F70D08956FEF7FEF94
:101C400090E080E00E946A2F089590E080E00E947A
:101C5000462F873E9E4F19F40E94291E089580E06A
:101C6000089582E090E00E94382F089583E090E08C
:101C70000E94382F089584E090E00E94462F089536
:101C8000BC0184E090E00E946A2F0895AB01BC0182
:101C90008FE090E00E945E2F0895AB01BC0183E1CC
:101CA00090E00E945E2F089560E070E0CB010E94FA
:101CB0004D0E089560E070E0CB010E94460E0E9438
:101CC000540E089567EE7EEF90E080E00E946A2F48
:101CD00060E082E090E00E944C2F60E083E090E0C2
:101CE0000E944C2F1092090260E074E184E090E0C1
:101CF0000E946A2F60E086E090E00E944C2F6FEF18
:101D000087E090E00E944C2F40E050E0BA0188E06C
:101D100090E00E945E2F60E08DE090E00E944C2FEA
:101D200040E050E0BA0188E190E00E945E2F60E060
:101D300087E190E00E944C2F40E050E0BA018CE136
:101D400090E00E945E2F70E060E080E290E00E94F0
:101D50006A2F40E050E0BA0188E190E00E945E2FD7
:101D600080E00E94421E0E94711E0E945A0E089539
:101D70000E94620E0895682F8EE090E00E944C2F22
:101D800008950E9444266093960270939702809370
:101D900098029093990260939202709393028093B9
:101DA0009402909395020895089508950E94D50E87
:101DB00008950E94070408958FE791E10E943D2451
:101DC0000E94D40E0E94D60E089581E008950E94CC
:101DD000E50E0895089508950E94EA0E0E94EB0E04
:101DE00008950E949E110E944A0508950E942F2680
:101DF0000E94811E0E9476120E94F10E0E94651CB4
:101E0000E7ECF3E08081806880838091C703909144
:101E1000C8030E94400E0E94D90E0895AAE0B0E0C7
:101E2000E4E1FFE00C947E2E0E948C1228E8822EC2
:101E300022E0922E640110E0F601E190F1906F0132
:101E4000812F0E94C1111F5F153009F449C0E816A7
:101E5000F90691F380919A0281FD0E94CA110E94B5
:101E6000E70E782E10E0812F0E94C1117C01F40151
:101E7000A190B1904F018A159B0561F1A826BF245E
:101E800000E0CC24C394D12CC5018C219D21892B49
:101E9000C1F07720B1F00E831F8321E0C7018C21B0
:101EA0009D21892B09F420E028870E943826816033
:101EB000782F9A8789874E815F8168858A850E94FD
:101EC00076050F5FCC0CDD1C0F30F1F6F401329774
:101ED000F182E0821F5F153031F60E94C10E22C0F0
:101EE000E816F90609F0B6CF0E9438268C018091D9
:101EF00086029091870208171907A1F08FEF898356
:101F00008A831B820E9438268160782F9D838C8370
:101F100049815A816B818D810E94760510938702D9
:101F2000009386020E94BD1C0E94AA140E945D05B7
:101F30002A96EDE00C949A2ECF93DF930E949A108C
:101F4000EC01811520E59207D0F5811530E4930767
:101F500008F086C0803E910518F58D3C910508F08B
:101F60007DC0883A910570F4853A910508F06EC0FD
:101F70008130910501F10097F1F00497E0F4D0E091
:101F8000C0E019C0813C9105D0F7C85AD0E0CC0F11
:101F9000DD1FC15ADE4F0990D881C02DD4640BC01B
:101FA0008115904208F0A8C0C11581E0D80718F447
:101FB000C83ED10520F7CE01DF91CF91089580363C
:101FC00022E5920710F5803432E5930708F052C0FD
:101FD0008032924508F047C0C11582E5D80708F461
:101FE0007DC02C2F2695269540E2249F9001112438
:101FF0008C2F8370C1E0D0E002C0CC0FDD1F8A952A
:10200000E2F7C22BD32BDD68D6CF803A22E59207C8
:1020100060F4803832E5930708F441C0CF71D0E016
:10202000DC2FCC27C46FD06AC6CF803C42E5940732
:1020300008F449C0C03E82E5D80708F0A0CFDC2FE5
:10204000CC27CC27DF71C06FD06AB5CFC55AD0E09E
:10205000CF56DE4FC881D0E0D064ADCFD065ABCFD6
:10206000DF70D06AA8CFCF71D0E0DC2FCC27C16F52
:10207000D06AA1CF282F26952695277080E2289F29
:10208000900111248C2F8370C1E0D0E002C0CC0FEE
:10209000DD1F8A95E2F7C22BD32BDC688CCF282F6B
:1020A00026952695277040E2249F90011124837085
:1020B000C1E0D0E002C0CC0FDD1F8A95E2F7C22B51
:1020C000D32BDA6878CF8F710E943C11C82FD0E0F3
:1020D000DC2FCC27CC27DF71D0626DCF8C2F8F7196
:1020E0000E943C1135E0D695C7953A95E1F7CF703F
:1020F0009C2FEC01D0695FCF8D2F8F710E943C1116
:1021000090E0982F882788279F719C012C2BE9014C
:10211000E3CF462F753030F46F3020F4672F0E94E4
:102120008322089590E080E008950E9489100E9423
:102130009C0F089582389105B9F1B0F4813391056F
:1021400009F47DC048F48932910509F46DC08A32E2
:10215000910509F47BC008958533910509F45FC0AA
:102160008933910509F10895833E9105D9F138F439
:10217000803E910529F1823E910579F10895863ED0
:102180009105D9F1873E910509F43EC0843E910541
:1021900041F52091C80321FF24C08091C70384FD2D
:1021A00019C087EE90E008952091C703237009F0CD
:1021B0005AC02091C80323FF14C089E290E008951B
:1021C0002091C70320FD38C03091C80330FF09C0FB
:1021D00024FF43C090E080E008952091C70322FDD2
:1021E000F7CF08952091C70322FD3AC03091C8036C
:1021F00030FD39C024FFF5CFEDCF2091C70323FF79
:10220000F0CF24FDE7CFCDCF2091C70323FD2EC013
:102210003091C80331FFEECF84EE90E00895209115
:10222000C70325FFDECFC9CF2091C70325FD21C0FD
:102230002091C80323FFD5CF89E390E0D2CF20912E
:10224000C70326FFCECF8AE290E008952091C7030E
:1022500026FFC7CF81E390E0089583EE90E00895D4
:1022600082EE90E0089580EE90E0089586EE90E092
:10227000089585E390E008959091C70392FF06C00A
:10228000282F28712830F9F4877F846093FF06C0D7
:10229000282F28712831F1F4877E84612091C803AA
:1022A00020FF06C0382F38713830D9F4877F81601D
:1022B00021FF06C0282F28712831D1F4877E816143
:1022C00094FD877E0895282F24712430F9F68B7FA2
:1022D0008860DCCF282F2471243101F78B7E886140
:1022E000DDCF382F3171313019F78E7F8860E0CF24
:1022F000282F2171213121F78E7E8861E1CF80E086
:1023000008950E941E0E08950E948C122FEF86E7FA
:1023100091E0215080409040E1F700C000000E9411
:102320008C1280E00E94C11180FF04C00E948111C4
:102330000E94832608950E94841108950E94250E0C
:10234000811102C00E94B80E0E94310E80939A0241
:102350000E943B0E9093C8038093C7030E949B1179
:102360000E94360E0E940D09809108020E942509E4
:10237000089508950E94B911089508950E94BD110D
:102380000895E82FF0E0EE0FFF1FED52FC4F808123
:1023900091810895089580EA8A95F1F7089500C023
:1023A00008950E94CB110895F894E82FE295EF70FC
:1023B000F0E031A1282F2F7081E090E001C0880F5C
:1023C0002A95EAF7982F9095932391A392A1892BB0
:1023D00082A378940895CF93DF93C3EAD1E08991E3
:1023E0008F3F11F00E94D41181E0C83AD807B9F7A5
:1023F000C4E9D1E089918F3F11F00E94D41181E0AE
:10240000C33AD807B9F7DF91CF910895AF92BF9241
:10241000DF92EF92FF920F931F93CF93DF938C0184
:10242000D62EC62FD0E0CE018D559E4F7C01FC01EB
:1024300020812F3F09F44DC0F894E22FE295EF7010
:10244000F0E031A12F7081E090E001C0880F2A9563
:10245000EAF7932F982B91A392A18095892382A3C9
:1024600078940E94CF11E4E9F1E043EA51E021E0E1
:1024700030E0B12CA12C61916F3FA9F1A62FA2955C
:10248000AF70B0E090968C9190E06F7002C095951F
:1024900087956A95E2F780FD26C0C901A82AB92A66
:1024A000220F331F4E175F0731F7F70180818F3FEF
:1024B00011F00E94D41161E0A114B10409F460E0AC
:1024C0008D2D0E94D111CC0FDD1FC00FD11FB982FD
:1024D000A882DF91CF911F910F91FF90EF90DF9035
:1024E000BF90AF90089590E080E0D8CF0E94EB11AC
:1024F0008AE0E3EDF3E0DF01982F1D929A95E9F76A
:10250000E9ECF3E0DF011D928A95E9F785E00E948E
:10251000C7120E94AA040895AAE0B0E0E2E9F2E13D
:102520000C94862E8E010F5F1F4F8AE0F8011192E6
:102530008A95E9F7F12C6F2DC8010E940612F394D9
:10254000F5E0FF12F8CF4AE050E0B80189EC93E0E3
:102550000E94222F21E0009709F420E0892B41F00E
:102560008AE0F801A9ECB3E001900D928A95E1F7B9
:1025700045E063ED73E089EC93E00E94C812182FE8
:102580000E94AD04812F2A96E5E00C94A22E0895B6
:10259000CF92DF92EF92FF921F93CF93DF936C0164
:1025A0007B01C42F222349F081E080939D020E9489
:1025B000382690939C0280939B0210919D021111EA
:1025C0000AC010E0812FDF91CF911F91FF90EF9013
:1025D000DF90CF90089580919B0290919C020E9481
:1025E0005026059770F3D0E0CC0FDD1FAE01B60189
:1025F000C7010E94222F892B41F0AE01B601C7010D
:102600000E942F2F10929D02DDCF10E0FBCF0E9481
:1026100031280E94F60E0E943E2808950E94432809
:102620000E940E0F0E945D2808950E94D1250E94ED
:1026300017280E94DC0E0E9407130E940E130E94AE
:10264000EC0EFBCF8091A40280FF0DC060910B01C6
:1026500070E0660F771F6038710570F561157105C0
:1026600069F1862F089581FF07C060910B0184E016
:10267000689FB0011124EFCF60910B0182FD0AC069
:102680008091A3028823A9F020910A0160910B0197
:10269000821710F088E0ECCF869FC001112433E050
:1026A000880F991F3A95E1F7622F70E00E94052E7E
:1026B000D2CF68E070E0D5CF8FE7089581E008952C
:1026C0008091A40280FF0CC06091070170E07595B5
:1026D0006795759567956115710549F1862F089580
:1026E00081FF06C06091070170E075956795F3CF93
:1026F0006091070182FD0BC09091A2029923A1F085
:102700006091060180910701961738F0682F70E0FC
:102710006038710500F38FE70895899FC001112487
:1027200070E00E94052EF4CF61E070E0D7CF81E029
:1027300008958D3C31F40E94221381958093A80264
:1027400008958E3C19F40E942213F8CF8F3C31F487
:102750000E94221381958093A7020895803D19F469
:102760000E942213F8CF893D29F40E9460138093C0
:10277000A90208958A3D21F40E9460138195F7CF44
:102780008B3D31F40E94601381958093AA020895D5
:102790008C3D19F40E946013F8CF9FE2980F983097
:1027A00070F4815D990B21E030E001C0220F8A9521
:1027B000EAF78091A602822B8093A60208958D3DB0
:1027C00031F48091A40281608093A40208958E3D2B
:1027D00021F48091A4028260F7CF8F3DB9F78091F8
:1027E000A4028460F1CF4091A7028D3C59F48091FE
:1027F000A80287FF0DC01092A80241110BC01092D1
:10280000A30208C08E3C81F48091A80218169CF3A4
:10281000442381F08091A9029091AA02892B09F0AA
:102820005AC01092A20208958F3C49F447FFF0CF9E
:102830001092A7028091A8028111ECCFE0CF803DD9
:1028400019F41416ACF3E4CF9091A902893D29F450
:102850001916F4F61092A902DBCF8A3D19F497FFFE
:10286000D7CFF8CF9091AA028B3D29F497FFD0CF14
:102870001092AA02CDCF8C3D19F41916CCF3C8CF13
:102880009FE2980F983090F4815D990B21E030E041
:10289000B90102C0660F771F8A95E2F7CB018095D8
:1028A0009091A60289238093A602B2CF8D3D31F488
:1028B0008091A4028E7F8093A402AACF8E3D21F442
:1028C0008091A4028D7FF7CF8F3D09F0A1CF809139
:1028D000A4028B7FF0CF08950E9438269C0190912E
:1028E000A7028091A802982B21F03093A102209397
:1028F000A0029091A9028091AA02982B21F0309316
:102900009F0220939E0285EA92E00E946E24089521
:1029100086E0E5EAF2E0DF011D928A95E9F7109280
:10292000A3021092A2021092A4020895FC018281D7
:1029300081110EC0838181110BC08481811108C077
:1029400091E08581811101C090E0892F8170089507
:1029500081E0FCCFA6E0B0E0E0EBF4E10C94882E3F
:1029600086E0E5EAF2E0DE01119601900D928A958B
:10297000E1F71092A7021092A8021092A9021092F9
:10298000AA028B819C81892B89F08091A002909171
:10299000A1020E945026AC019091A3029923C9F193
:1029A00080910C018417150608F440C08D819E812A
:1029B000892B91F080919E0290919F020E94502657
:1029C000AC019091A202992309F471C08091080191
:1029D0008417150608F479C0BE016F5F7F4F85EA42
:1029E00092E00E948825811105C085EA92E00E944C
:1029F000961481110E946C1486E0FE013196A5EABE
:102A0000B2E001900D928A95E1F72696E3E00C94EE
:102A1000A42E20910D018AE0289F900111242417F3
:102A2000350720F69F5F9093A30202C09F3FD1F726
:102A30001B81112359F00E9422139FEF11160CF4F1
:102A400091E0899F802D11248093A7021C8111237E
:102A500059F00E9422139FEF11160CF491E0899F08
:102A6000802D11248093A8023091A702332309F40A
:102A70009DCF2091A802222309F498CF45EB34037F
:102A8000C0011124992359F09093A70245EB240328
:102A900090011124332339F03093A80287CF81E0CD
:102AA0008093A702F3CF81E08093A8027FCF20918B
:102AB00009018AE0289F900111242417350708F0A6
:102AC0008BCF9F5F9093A20202C09F3FD1F71D81E1
:102AD000112359F00E9460139FEF11160CF491E03E
:102AE000899F802D11248093A9021E81112359F002
:102AF0000E9460139FEF11160CF491E0899F802DC6
:102B000011248093AA023091A902332309F464CFDF
:102B10002091AA02222309F45FCF45EB3403C001C0
:102B20001124992359F09093A90245EB24039001B5
:102B30001124332339F03093AA024ECF81E08093E1
:102B4000A902F3CF81E08093AA0246CFEF92FF92D1
:102B50000F931F93CF93DF93EB01E82FD1110EC09A
:102B6000442321F0F0E0E45DFB4FE4916E2F7E2FD3
:102B70008E2FCDB7DEB7E6E00C94A12E0D2F10E01E
:102B8000282F30E0442329F0245D3B4FF9012491A4
:102B900030E0F6E0CF9FC0011124EFEFF0E0BF017D
:102BA0000E94F12DAB018C2F90E0880F991FA5E5B5
:102BB000A49FB001A59F700D1124861B970B982F21
:102BC000990F980FBF01601B710B629FD001639F2B
:102BD000B00D729FB00D11248B2F9D9FB001112459
:102BE000672F7727EF01C61BD70BBE01629FE0015D
:102BF000639FD00D729FD00D11247F01E91AF10857
:102C0000E09EB001E19E700DF09E700D1124672FC3
:102C10007727E61BF70BE29F8001E39F100DF29FE1
:102C2000100D1124E12F722F4230510599F048F414
:102C30004115510569F04130510581F0EB2F8D2F81
:102C400007C04430510569F080F046305105B1F7B6
:102C50006E2F8FCFE22F7B2F812FFACFE22F7D2F88
:102C6000F7CFEB2F822F712FF3CF7B2F822FED2FFA
:102C7000EFCF41E00E94A615089508950E943916ED
:102C80000895CF93DF93762FE901682F842F0E9458
:102C90003E16798368838A83DF91CF91089580916E
:102CA000DD03982F9E7F29F4817082608093DD037D
:102CB00008958635E8F381708465F8CF88E090E068
:102CC0000E94402F0895CF92DF92EF92FF926B0106
:102CD0007C010E944F16B701A60188E090E00E9497
:102CE0005E2FFF90EF90DF90CF9008956091DD030D
:102CF0007091DE038091DF039091E0030E946316E0
:102D00000895EDEDF3E083E0808311828FEF8283FD
:102D10008383148260817181828193810E94631612
:102D200008958091DD0380FF02C08695089580E0BC
:102D300008958091DD03817008959091E1039330AF
:102D400018F49F5F9093E103882351F06091DD03B5
:102D50007091DE038091DF039091E0030E9463167F
:102D6000089581E00E949D1608959091E1039923B2
:102D700019F091509093E103882351F06091DD03A5
:102D80007091DE038091DF039091E0030E9463164F
:102D9000089581E00E94B51608958091E103089599
:102DA0008093E103662351F06091DD037091DE03AF
:102DB0008091DF039091E0030E946316089560E024
:102DC0000E94D01608958091DE0308958091DF035C
:102DD00008958091E003089521E030E0A90102C048
:102DE000440F551F8A95E2F7CA0120919803662384
:102DF00039F0822B8093980381E080938A030895B1
:102E000080958223F7CF21E030E001C0220F8A9520
:102E1000EAF790919803922381E009F480E0089505
:102E200070E00E94FD1D0895A5E0B0E0EAE1F7E141
:102E30000C947D2E709012018091DD0380FF16C0EE
:102E4000C0908B03D0908C03C114D10409F58091FC
:102E5000110133E0839FC0011124672D8E519C4FD7
:102E60000E9410172596EEE00C94992E8091130184
:102E70009091140123E0829FF0011124EE51FC4F48
:102E80008917F0F61182108212828F5F3396F8CF85
:102E9000809194038111DBCFF12CE12C43E0642E6F
:102EA0008E2D0E940317882309F43BC0F701EE0F13
:102EB000FF1FEC0DFD1DA590B490A114B10439F2D3
:102EC00045E050E0B501CE0101960E940C2F09812A
:102ED0000F3F39F18A81800F9927991F8D32910513
:102EE00014F08CE290E04C01880C991C880D991D1F
:102EF0009C012E513C4F4901069D800111240E5129
:102F00001C4F0815190520F035E0A30EB11CD8CFD1
:102F100098014D816C818B810E9441160D5F1F4F7E
:102F2000F0CF8FEFE81AF80A28E0E216F10409F072
:102F3000B7CF8DCF9091DD0390FF0EC0909113011C
:102F40002091140133E0939FF0011124EE51FC4FC6
:102F5000921718F00E9414170895818360834283AA
:102F60009F5F3396F5CFA3E0B0E0E9EBF7E10C9477
:102F7000892E9091DD0390FF0AC09E012F5F3F4F85
:102F80000E9441164B8169818A810E949A1723967B
:102F9000E2E00C94A52ECF93DF93EC01EC81F0E0FE
:102FA000E95DFC4F4491EDEDF3E0628181810E9487
:102FB000B3178C818F5F8C83DF91CF910895CF936E
:102FC000DF93EC01EDEDF3E0438162818C810E949F
:102FD000B3178C818F5F8C83DF91CF910895A3E02D
:102FE000B0E0E5EFF7E10C94872E8C018091AB0205
:102FF00081110AC09E012F5F3F4F4FEF6FEF0E947C
:1030000041168A818093AB02F8016481613069F0D6
:103010008091AB0240E0662361F040E0623011F441
:103020004091AB0280E060E004C06091AB0240E000
:1030300080E00E949A17F801848190E0019663E095
:1030400070E00E94052E84832396E4E00C94A32E66
:10305000A3E0B0E0EEE2F8E10C94822E082FD62E29
:10306000E42EC22E9091DD0390FF29C0E92FE69552
:10307000AE2FB0E0A855BE4F8C91809396039E7FF3
:10308000923009F59E012F5F3F4F802F0E9441161D
:103090004B8169818A810E949A170093DE03D09246
:1030A000DF03E092E003CC2051F06091DD037091EA
:1030B000DE038091DF039091E0030E946316239664
:1030C000E9E00C949E2E823019F4E090E003E5CF05
:1030D000863019F40091DE03E0CF8930D9F38931CD
:1030E000E1F6E9516E2F6170B62EE695F0E0E95DEC
:1030F000FB4F1491F12C60911501F61618F00E9407
:103100001417CBCFF19EC001112470E00E94F12D65
:10311000802FB11014C0860F20911301622F6F0D04
:103120007727771F9B01220F331F260F371F2E5142
:103130003C4F4E2D6D2D0E944116F394DCCF861B23
:10314000EBCFEDEDF3E09181282F4381628188E0A0
:10315000890F0E942818089581E00E94A1180895FF
:10316000EDEDF3E09181282F4381628188EF890F93
:103170000E942818089581E00E94B0180895EDED8E
:10318000F3E0628128E0620F08F46FEF282F43819B
:1031900081810E942818089581E00E94BF18089537
:1031A000EDEDF3E0628128E0621B08F460E0282F77
:1031B000438181810E942818089581E00E94D018DF
:1031C0000895EDEDF3E0438128E0420F08F44FEF5E
:1031D000282F628181810E942818089581E00E9431
:1031E000E1180895EDEDF3E0438128E0421B08F477
:1031F00040E0282F628181810E942818089581E093
:103200000E94F218089520E00E9428180895EF9275
:10321000FF921F93CF93DF93EC0110E0EE24EA942A
:10322000F12C60911501161770F00E9414179A8105
:103230008C8190FF27C08F5F8C83DF91CF911F918E
:10324000FF90EF90089520911301422F410F5527D1
:10325000551FCA019A01220F331F280F391F2E5103
:103260003C4F70E0C7010E94052E962F8C81409143
:10327000E0036091DF03199F800D11240E94411625
:103280001F5FCFCF8150D8CFB0E0A0E0EAE4F9E1F2
:103290000C94812EFC0182810FEF80FF01E010E091
:1032A0004CE2A42E80911501181798F00E94141773
:1032B0008091AD02013009F04FC0811102C08091B0
:1032C000150181508093AD02CDB7DEB7EAE00C94D2
:1032D0009D2EC0911301C12ED12CCC0DDD2DD11D01
:1032E000CE01880F991FC80FD91FCE51DC4F19820C
:1032F00018821A8234E0E32EF12CB12C8091AD02B9
:103300008B0D8D321CF16A2D0E94E32D892F082E22
:10331000000C990BC816D90691F48091E0038E9D9C
:10332000A0018F9D500D11245595479555954795B2
:103330009E016091DF038091DE030E944116B00E72
:10334000F1E0EF1AF108D1F61F5FACCF87FFDFCFB6
:1033500090911501890FDBCF90E0019660911501E6
:1033600070E00E94052EAECF0F931F93CF93DF9393
:10337000809113019091140123E0829FF0011124A8
:10338000EE51FC4F891740F1C0E0D3E06091150188
:10339000C61740F10E94141720910F018091AC02D2
:1033A000820F8093AC0290911001920F90931001C4
:1033B000191654F4082E000C990B40911501415038
:1033C000550B841795071CF0219520930F01DF9171
:1033D000CF911F910F9108951182108212828F5FF9
:1033E0003396D0CF0C2F10E070E0C8010E94052E5C
:1033F00020911301820F482F50E02091AC02022E41
:10340000000C330B02171307BCF020911001022EA1
:10341000000C330B201731077CF08D9F9001112495
:103420002E513C4F4091E0036091DF038091DE0319
:103430000E944116CF5FAACFFA01EE0FFF1FE40FE3
:10344000F51FEE51FC4F118210821282F3CFB0E0D3
:10345000A0E0EDE2FAE10C947F2EEC014C81042F08
:1034600010E09801D8010E94502E9B01AC010E94EF
:10347000662E4B015C01E0E2F0E0E01BF10BA5E5FC
:10348000B0E0AC019B010E94662E6B017C019F01A4
:10349000DF010E94482E9B01AC010E94712E9B010E
:1034A000AC01280D391D4A1D5B1DC701B6010E94E4
:1034B000192EF22E822F90E039E23F1520F143E0E1
:1034C000249F9001112435952795122F109500E027
:1034D00085E5E82EEF1880911501081718F10E9474
:1034E00014179C8181E0992319F0903219F48FEF21
:1034F00080930E0180910E01890F8C83CDB7DEB7CA
:10350000ECE00C949B2E25E530E0B901681B790BAB
:103510009B01220F331F260F371F37FFD4CF2F5F9A
:103520003F4FD1CF8E2D01FD8F2D20911301622FA2
:10353000600F7727771F9B01220F331F260F371F3E
:103540002E513C4F412F6091DF030E9441160F5FC7
:10355000C2CF0F931F93CF93DF93EC0110E000E0F5
:10356000909115019017110609F06CF40E94141740
:103570008C8190E00196817099278C83DF91CF91A7
:103580001F910F91089520911301A801420F511D21
:103590009A01220F331F240F351F2E513C4F4C81AF
:1035A0006091DF038091DE0396959017110651F02C
:1035B0004CF0442349F04091E0030E9441160F5F14
:1035C0001F4FCECF4423B9F340E0F7CFB0E0A0E0E7
:1035D000ECEEFAE10C947B2EFC016280448081E0E9
:1035E0008483E7E2F3E07490E6EAF3E0E491C091CB
:1035F000E003C695C158D0E0CC0FDD1FCD2FDD27ED
:10360000812C75E0972EAA24AA94B12C55245A94A3
:10361000E719EE2EF12C80911501881638F00E94E2
:103620001417CDB7DEB7E0E10C94972EC82CD12C3F
:1036300082E0861568F09C9CF0019D9CF00D1124A1
:10364000E255FD4F8091DE0380838091DF0381830B
:10365000411023C09C9CF0019D9CF00D1124E2556B
:10366000FD4F1382128220911301C601820F911D1A
:103670009C01220F331F280F391F2E513C4F9C9C59
:10368000F0019D9CF00D1124E255FD4F42816181B6
:1036900080810E9441168394BECF9C9C80019D9C9A
:1036A000100D112402551D4FF80183818823F1F07C
:1036B00081508383859DC0011124648170E00E9444
:1036C000F12DFB01FF27E95DFC4F8491E82FE719FD
:1036D000E59DC0011124B7010E94F12D8091E00306
:1036E000689FB0011124F8017283BDCF0E94FC2EA7
:1036F000B5010E94052E8C179D070CF0B4CFF2E0A7
:10370000F61598F40E94FC2EB5010E94052EF801D2
:1037100080830E94FC2E2091DF032695622F70E0AB
:103720000E94052E280FF80121839C9CF0019D9C8E
:10373000F00D1124E255FD4F12828091E003893C87
:1037400058F088EC9C9CF0019D9CF00D1124E255F2
:10375000FD4F8483838387CF8431A0F784E1F2CF48
:10376000EDEDF3E080818E7F8083608171818281C5
:1037700093810E946316109297030E941417089574
:10378000EDEDF3E080818E7F8083109297030E949D
:1037900014170895109297038091940381110AC021
:1037A00081E0809394038091DD0381708093930383
:1037B0000E94C01B08956091DD03669570E04BE0A8
:1037C00050E086E191E00E94152F892B19F481E0E9
:1037D000809397030E94382690938E0380938D03E5
:1037E00008959091DD0390FF2BC09170811129C045
:1037F00092609093DD03662351F06091DD03709138
:10380000DE038091DF039091E0030E9463166091D4
:10381000DD03669570E04BE050E086E191E00E94A8
:10382000152F892BA9F01092970381E080939003C4
:103830004091E0036091DF038091DE030E94031951
:1038400008958B3210F09465D4CF880F982BD1CF88
:103850000E94DB1BEACF682F9091DD03969581E0F3
:10386000890F8B3208F081E00E94F11B089581E0FE
:103870000E942B1C0895682F9091DD0396958FEF81
:10388000890F09F48AE20E94F11B089581E00E94E9
:103890003B1C089561E00E94F11B0895EDEDF3E0FB
:1038A00080818160808386950E944A1C0895809162
:1038B000DD0380FF03C00E94B01B08950E944E1CD0
:1038C000089560E00E94F11B089580919503811195
:1038D0002EC00E94250E811104C00E94B80E0E94C5
:1038E00081160E945E166093DD037093DE03809361
:1038F000DF039093E0036E7F61F40E9481160E94C3
:103900005E166093DD037093DE038093DF03909374
:10391000E0030E944F16109297038091DD0380FF11
:1039200003C086950E94611C81E0809395030895F1
:10393000EDEDF3E080818160808386950E94611CBB
:1039400008958091DD0380FF03C00E94C01B08958D
:103950000E94981C089510929403809193038823E9
:1039600029F00E94981C0E94DB1B08958091980307
:103970008823C9F30E941417F6CF0F931F93CF9398
:10398000DF93809197038823C1F180919603E091A2
:10399000DD03E695E81BE0938F03823009F046C013
:1039A000F0E0ED5DFC4FE491CE2FD0E00BEC17E1A1
:1039B00080919003882361F0109290030E94382632
:1039C00090938E0380938D03109292031092910333
:1039D0000E943826E0918D03F0918E038E1B9F0B81
:1039E0008F3F9F4750F4EC0FFD1FF0938E03E09341
:1039F0008D038DE893E0F801099580918A0388236F
:103A000081F010928A0380919703811105C0809103
:103A1000DD0386950E94611C8091DD0380FF0E947A
:103A20001417DF91CF911F910F910895863049F4BB
:103A3000F0E0E05EFC4FE491CE2FD0E00FED17E117
:103A4000B7CF893051F4E695F0E0E35EFC4FE491A6
:103A5000CE2FD0E007E019E1ABCF8F3051F4E695DF
:103A6000F0E0E65EFC4FE491CE2FD0E004E419E1F3
:103A70009FCF853149F4F0E0E95EFC4FE491CE2F11
:103A8000D0E004EB19E194CFC8E2D0E007E21AE1FC
:103A9000883109F48DCF833239F4E5E1F3E0C59143
:103AA000D4910FEE17E184CFC4EFD1E009EA1AE117
:103AB000843209F47DCFC0EDD7E00DE316E1853205
:103AC00009F076CF8E2F63E00E94D72DE92FF0E02A
:103AD000EE5EFC4FE491CE2FD0E006EE1AE168CF07
:103AE000FA01811101C0FB0109950895CF93DF937D
:103AF000C82FD62F0E9491168C1748F00E9491165D
:103B00008D1728F40E94371CDF91CF9108958C2FD8
:103B10000E944A1CF9CF1F93CF93DF93EC01FB0166
:103B20001281111110C00E94370D8272FE01E05205
:103B3000F847E531F10508F05EC0E355F04D0C940F
:103B40003B2E0E94571C812FDF91CF911F9108952A
:103B500046E45CE167E37CE10E94701DF4CF47E33B
:103B60005CE166E47CE1F8CF4BEB58E16CEA78E18C
:103B7000F3CF4CEA58E16BEB78E1EECF4DED58E135
:103B80006CEC78E1E9CF4CEC58E16DED78E1E4CFF5
:103B90004FEF58E16EEE78E1DFCF4EEE58E16FEF78
:103BA00078E1DACF49EC56E161EB76E1D5CF41EB34
:103BB00056E169EC76E1D0CF81E00E944A1CC3CF88
:103BC00065E082E00E94761DBECF68E086E0FACF15
:103BD0006EE089E0F7CF64E18FE0F4CF67E185E143
:103BE000F1CF88E1EACF62E289E1ECCF83E2E5CF71
:103BF0006AE285E2E7CF11E0A6CF6A9A4EB14B7F29
:103C00005EB15460EFB7F8949B01220F331F260F6B
:103C1000371F280F391F2817390741F4EFBF8FE5E9
:103C200094E00197F1F700C000000895DC016D9168
:103C3000CD0178E05EB9000000C067FF4EB9660FA5
:103C4000000000C000C000C04EB900C07A9591F7D6
:103C5000E2CF82E290E00E94382F833289F483E23F
:103C600090E00E94382F823059F484E290E00E9464
:103C7000382F91E0813109F090E0892F817008950B
:103C800080E0FCCFCF93C82F6FEF811163E282E217
:103C900090E00E944C2F6FEFC11162E083E290E050
:103CA0000E944C2F6FEFC11161E184E290E00E940D
:103CB0004C2FCF910895089585E290E00E94382F0F
:103CC000682F70E090E080E008950895CF93C62FAC
:103CD0000E94651E6C2F85E290E00E944C2FCF91D0
:103CE000089580E00E94421E60E070E0CB010E94D7
:103CF000661E0E940F220E94DE2281E00E94421E68
:103D000008950E945B1E0E945C1E0E94651E0E9418
:103D1000291E811102C00E94711E08950E94A11CDB
:103D20000895CF93FB01C281CC2309F19C0122505D
:103D300037472031310520F582500E94EE22C0E045
:103D40008C2FCF91089581E00E943A0943E062E010
:103D500081E00E94A004F3CF81E00E94460943E085
:103D600062E081E00E94A004EBCF82E0F6CF8115F3
:103D7000F7E79F0789F381309747B9F3C1E0E0CFB8
:103D80008115E7E79E07F9F281309747C9F682E08F
:103D9000DBCF2FEFFC012083089580E00895CF93BF
:103DA000DF93EC0188818230E9F028F4813071F0F2
:103DB000DF91CF9108958330F9F08430C9F70E94E4
:103DC000E31689830E94E6168A83F2CF0E94E916E1
:103DD0002FEF829FC00111246FEF70E00E94F12D40
:103DE0006983E6CF0E949916882321F00E949116DC
:103DF0008983DECF80E0FCCF0E94CD16F9CFCF9330
:103E0000DF93EC018881823021F128F4813069F060
:103E1000DF91CF910895833041F18430C9F70E943A
:103E2000E916482F6A81898111C089812FEF829F0D
:103E3000C00111246FEF70E00E94F12DD62F0E9477
:103E4000E616C82F0E94E3164D2F6C2F0E9403190F
:103E5000DFCF8981811103C00E94C01BD9CF0E948E
:103E6000981C89810E94611CD3CF89810E94DF1632
:103E7000CFCFFC019C012E5F3F4F9081983041F0E5
:103E8000993051F0973059F4C9010E94FF1E0895EE
:103E9000C9010E94CF1E08950E94761608958FEFE3
:103EA00080830895FC012181223019F40E94391F7A
:103EB00008950E94C91E0895EF92FF920F931F93D9
:103EC000CF93DF93EC01062F0E94CD1E811110C00D
:103ED000E881E150E331B8F4F0E0EE53F04D0C949A
:103EE0003B2E19828BE08A83602FCE010E940B2724
:103EF000CDB7DEB7E6E00C94A12E89818230C1F007
:103F000028F4813061F08FEF8883EECF833099F011
:103F10008430C9F71A821B821C821D82E5CF0E9461
:103F200044260E94412E6A837B838C839D83DCCF51
:103F30000E945C1EF6CF7E0110E0812F0E94C1110D
:103F4000F701928383831F5FF2E0EF0EF11C1530BF
:103F5000A1F7CACF8981823031F08530A1F68A81FC
:103F60000E948E1EC1CF6A817B818C819D810E94BF
:103F7000412E0E94661EB8CF4B816A8189810E94C2
:103F8000D1219827892798279D838C83ADCF2C81B9
:103F90003D813227232732274B816A8189810E9404
:103FA000F321A2CF0E940F229FCF602FCE010E944B
:103FB000521F9ACF0E948F22898396CF0E9491220E
:103FC0009827892798279A8389838ECF6B8170E001
:103FD00089819A81AE014C5F5F4F98278927982786
:103FE0000E94942281CF6B8170E089819A81AE0119
:103FF0004C5F5F4F9827892798270E94B92274CF7A
:104000000E94DE2271CF0E94BF21D6CF6B8170E06B
:1040100089819A81AE014C5F5F4F98278927982745
:104020000E943B2261CF6B8170E089819A81AE0151
:104030004C5F5F4F9827892798270E945F2254CFB3
:10404000CF93DF93EC01FB018281882309F4D2C076
:104050009E0130572332310508F0B2C00E943B0E5A
:104060009093C8038093C703FE01E150F047E2320A
:10407000F10520F4EB52F04D0C943B2E8091C703D8
:1040800081608093C70393C08091C8038860809348
:10409000C8038DC08091C7038260F3CF8091C703AE
:1040A0008460EFCF8091C7038860EBCF8091C80315
:1040B0008160EDCF8091C8038260E9CF8091C70312
:1040C0008061DFCF8091C7038062DBCF8091C7031F
:1040D0008064D7CF0E94BC088091C7038068D1CF8D
:1040E0008091C7038C60CDCF8091C8038360CFCF10
:1040F0008091C7038E7FC5CF8091C803877FC7CFCC
:104100008091C7038D7FBDCF8091C7038B7FB9CFCF
:104110008091C703877FB5CF8091C8038E7FB7CFCB
:104120008091C8038D7FB3CF8091C7038F7EA9CFC5
:104130008091C7038F7DA5CF8091C7038F7BA1CFCF
:104140000E94BC088091C7038F779BCF8091C703E3
:10415000837F97CF8091C8038C7F99CF8091C703CD
:1041600082FB992790F921E0922790FB82F990FB3E
:1041700083F987CF8091C803982F909591708E7F97
:10418000892B90FB81F983CF9091C703892F8F7B77
:1041900096FF806476CF0E94BC089091C703892F58
:1041A00097FB87F980586DCF81E00E94BB0E80910C
:1041B000C7039091C8030E94400E0E94BC0880E093
:1041C000DF91CF91089580E0F0CF9091C703892FC0
:1041D0008F7E94FF806155CF9091C703892F8E7F8A
:1041E00090FF81604ECF9091C803892F877F93FF06
:1041F00088604DCF81E0E4CFB0E0A0E0E2E0F1E202
:104200000C94842EE82FF0E0E45DFA4FD490282F30
:1042100026952695269530E0F901E453FA4F04914E
:10422000877010E0082E02C0159507950A94E2F7F2
:1042300001701127F901E454FA4FE490F12C082E93
:1042400002C0F594E7940A94E2F791E0E922FF2492
:10425000F901E455FA4FC491D0E002C0D595C79555
:104260008A95E2F7C170DD270115110519F081EE7D
:104270000E94BB05E114F10419F086EE0E94BB0513
:104280008D2D0E945306E114F10419F086EE0E9470
:1042900008060115110519F081EE0E940806CD2BC4
:1042A00019F08CE20E945306CDB7DEB7E7E00C941C
:1042B000A02EEF92FF920F931F93CF93DF93EC0109
:1042C000162F0AE08881882309F454C0813009F050
:1042D0004EC08981813099F47E0122E0E20EF11C0A
:1042E0008A810E945306E7012196812F815050F365
:1042F000EFE9FFE03197F1F700C00000F7CF82301F
:1043000041F47E0182E0E80EF11C8A810E94BB0527
:10431000EACF833041F47E01E2E0EE0EF11C8A81A7
:104320000E940806E0CF843011F02196DDCF2A816B
:10433000229690E080E0AE014F5F5F4F2053330B39
:104340002A30310548F0019778F2EFE9FFE0319724
:10435000F1F700C00000F7CF089FB001099F700D72
:104360001124C901860F971F2981EA01E4CF0E9419
:10437000FC20BACFCDB7DEB7E6E00C94A12E84E0E6
:10438000089550E0440F551F9EE1699F400D511D57
:10439000112496E9899F400D511D1124CA0186966A
:1043A00008950F931F93CF93DF938430C8F4653043
:1043B000B8F44F30A8F40E94C1218C010E94382F1C
:1043C000C82FD0E0DC2FCC27C80101960E94382FDF
:1043D0009E01282BC901DF91CF911F910F91089564
:1043E00090E080E0F8CF0F931F93CF93DF93122FCD
:1043F000032F843078F4653068F44F3058F40E940D
:10440000C121EC01602F0E944C2F612FCE0101963B
:104410000E944C2FDF91CF911F910F9108950F9320
:104420001F93CF93DF93D0E0C0E010E019C00E944B
:10443000160421E030E08C171D0639F034F0402FCF
:10444000612F8C2F0E9418049C01402F612F8C2F0C
:104450000E94F3210F5F0F3051F71F5F153011F0ED
:1044600000E0E5CF2196C430D105F9F6DF91CF9178
:104470001F910F910895EF92FF920F931F93CF9387
:10448000DF93EC018A017C01E60EF71ECE018696D1
:10449000CE15DF0529F4CDB7DEB7E6E00C94A12EEA
:1044A000C83522E0D20740F40E94382FF8018083FB
:1044B0000F5F1F4F2196EACFF8011082F9CFB0E0CD
:1044C000A0E0E5E6F2E20C94832E7C016A018C0107
:1044D000060F171FEC01CE018696C017D10729F4ED
:1044E000CDB7DEB7E8E00C949F2EC83522E0D207A6
:1044F00040F4FE01EE19FF09EC0DFD1D60810E94E4
:104500004C2F2196E8CF843038F4653028F44F30B2
:1045100018F40E94D121089590E080E0089580E190
:10452000089582E891E00895EF92FF920F931F9310
:10453000CF93DF93EC018A017C01E60EF71ECE01DA
:1045400082589D4FCE15DF0529F4CDB7DEB7E6E0E2
:104550000C94A12EC23821E0D20740F40E94382FDB
:10456000F80180830F5F1F4F2196E9CFF801108279
:10457000F9CFB0E0A0E0EFEBF2E20C94832E7C01E7
:104580006A018C01060F171FEC01CE0182589D4F66
:10459000C017D10729F4CDB7DEB7E8E00C949F2E01
:1045A000C23821E0D20740F4FE01EE19FF09EC0DFC
:1045B000FD1D60810E944C2F2196E7CFCF93DF93A2
:1045C000CEE7D2E060E0CE010E944C2F2196C115CB
:1045D00084E0D807B9F7DF91CF910895A8E0B0E063
:1045E000E4EFF2E20C94812EF82E8FE08F1508F4A0
:1045F0006EC08FEF93E00E94382F811168C00EE7E4
:1046000012E0F11035C0FE0131966F0188E0119281
:104610008A95E9F77801FFEFEF1AFF0AC8010E94B7
:10462000382F89831A82882309F451C08130D1F44C
:10463000580182E0A80EB11CC7010E94382F8A835E
:10464000882309F444C09FEF980F9330F0F4780169
:1046500093E0E90EF11CC5010E94382F8B8388235B
:10466000B1F11C8260E0C6010E9459218701D2CFBE
:10467000011594E0190759F1C8010E94382F8111E2
:1046800001C0FA940F5F1F4FBCCF7501843051F702
:1046900002E010E07501EFEFEE1AFE0AC5010E947C
:1046A000382FF601E00FF11F8083882381F08C37CB
:1046B00041F4E2E0F0E0EC0FFD1FE00FF11F10828B
:1046C000D1CF0F5F1F4F57010730110519F72896FB
:1046D000EAE00C949D2ECF93DF93EB0186319C474B
:1046E00011F50E94370D9A81992399F08A7A91E009
:1046F00009F490E090939903811109C089E20E9426
:104700000F0D0E94780D80E0DF91CF91089585E331
:10471000F6CF80919903811104C089E20E94170DA0
:10472000F0CF85E3FBCF81E0EFCF0F931F93CF93C3
:10473000DF93C42FD22FFC0182818823C9F04093DC
:104740009C030E94382690939B0380939A0380E2F7
:104750008C0F883040F4C77081E001C0880FCA9583
:10476000EAF70E945C06DF91CF911F910F910895A7
:1047700010919C03141332C080919A0390919B0373
:104780000E945026883C910548F5C0E2CD0F1D17C8
:10479000B9F080E2810F883040F4177081E001C0E9
:1047A000880F1A95EAF70E946306C83048F481E042
:1047B0009D2F977001C0880F9A95EAF70E945C06BA
:1047C000802F0E945306C83070F6D77081E001C078
:1047D000880FDA95EAF70E946306C5CF80E28C0F56
:1047E000883008F6C77081E001C0880FCA95EAF7E3
:1047F000F2CF0F93DB0188519C4787309105A0F5DC
:10480000FC01E950F04D0C943B2E06E221EE41EE06
:104810006AE17CE7CD010E94952380E00F91089525
:1048200007E225EE45EE6BE17CE7F4CF06E221EEF0
:1048300040EE68E17CE7EECF07E225EE44EE69E169
:104840007CE7E8CF06E221EE42EE6CE17CE7E2CFC6
:1048500007E225EE46EE6DE17CE7DCCF08E221E0E1
:1048600045EE6EE17CE7D6CF12968C91882319F045
:1048700010929C03D3CF81E0D1CF9093E30180933A
:10488000E20108959093A2038093A1030895E0911B
:10489000A103F091A203309729F00190F081E02D5F
:1048A0000995089580E00895E091A103F091A20395
:1048B000309799F020912901222359F02091C703C4
:1048C00027FF07C0DC012C9111962C93119726E04D
:1048D0002C930280F381E02D09950895E091A103C6
:1048E000F091A203309739F022E0DC012C93048090
:1048F000F581E02D09950895A3E0B0E0E2E8F4E247
:104900000C94892E20919F033091A003281739071A
:10491000A1F09093A00380939F03E091A103F091F5
:10492000A203309751F023E029839B838A8306807A
:10493000F781E02DCE01019609952396E2E00C94D3
:10494000A52EA3E0B0E0E7EAF4E20C94892E2091D2
:104950009D0330919E0328173907A1F090939E0381
:1049600080939D03E091A103F091A203309751F051
:1049700024E029839B838A830680F781E02DCE0182
:10498000019609952396E2E00C94A52EFC0132963F
:1049900080912901882321F08091C7039EE187FF40
:1049A00096E080E0915008F4089521912223D1F3FC
:1049B0008F5FF8CF662301F1209129012223F1F0C6
:1049C0002091C70327FF1AC0462F46954695469566
:1049D0004E3190F4677021E030E002C0220F331FA7
:1049E0006A95E2F7840F911DFC01828190E02823F3
:1049F000392381E0232B69F480E00895FC0132968D
:104A000008962191261721F0E817F907D1F7F4CF7E
:104A100081E008959C01FC0132969FEF80E0419176
:104A2000461751F09F3F19F4411101C0982F8F5F35
:104A30008630A9F79F3F09F40895290F311D97FD8E
:104A40003A95F90162830895FC0132960896219106
:104A5000261303C0DF0111971C92E817F907B9F775
:104A60000895E62FE695E695E695EE3168F4E80FB1
:104A7000F92FF11D677021E030E001C0220F6A9527
:104A8000EAF78281822B82830895E62FE695E695E8
:104A9000E695EE3170F4E80FF92FF11D677021E013
:104AA00030E001C0220F6A95EAF720958281282321
:104AB0002283089520912901222339F02091C703F0
:104AC00027FF03C00E94312508950E940A250895FA
:104AD00020912901222339F02091C70327FF03C029
:104AE0000E94452508950E9424250895FC013296D0
:104AF00080912901882351F08091C70387FF06C068
:104B00008EE1DF011D928A95E9F7089586E0F9CFDD
:104B100046E050E00E94222F21E0892B09F420E09A
:104B2000822F089508950E9492250895811106C04C
:104B300081E08093A3030E949325089582E0F9CF3A
:104B400083E08093A3030E94932508950E949625F5
:104B5000089581E08093A3030E94932508950E9405
:104B6000A9250895089508950E94B32508950895EC
:104B700008950E94B2250895CF930E94B7250E9400
:104B80008C120E94B825C0E08C2F0E94C111892B85
:104B900031F4CF5FC530C1F780E0CF91089581E057
:104BA000FCCF85B7806885BF85B7806885BF0895CD
:104BB0001F921FB61F9211248F939F93AF93BF93A1
:104BC0008091A403811113C08091660490916704C1
:104BD000A0916804B09169044196A11DB11D809314
:104BE000660490936704A0936804B0936904BF912E
:104BF000AF919F918F911F901FBE1F90189580912C
:104C00006E04843031F10E942B051092A40388E1D8
:104C100090E020E40FB6F894A895809360000FBE52
:104C20002093600083B7817F846083BF83B78160F6
:104C300083BF7894889583B78E7F83BF0FB6F8942F
:104C4000A895809160008861809360001092600058
:104C50000FBE08950E94BC080E943205089582E0AC
:104C600084BD93E095BD9AEF97BD80936E00089543
:104C70002FB7F8948091660490916704A09168041E
:104C8000B09169042FBF08952FB7F894609166041E
:104C90007091670480916804909169042FBF089512
:104CA0009C014FB7F8948091660490916704A0919D
:104CB0006804B09169044FBF821B930B08957894E8
:104CC0001F921FB61F9211248F939F93AF93BF9390
:104CD0008091660490916704A0916804B091690482
:104CE0000196A11DB11D8093660490936704A09363
:104CF0006804B0936904BF91AF919F918F911F9009
:104D00001FBE1F90189581E08093E00080E28093A1
:104D1000D8001092C9008FE19EE40197F1F700C01E
:104D2000000087E090EBDC01809377049093780497
:104D3000A0937904B0937A0488E19CE00FB6F894CC
:104D4000A895809360000FBE90936000FFCF88E12C
:104D50009CE00FB6F894A895809360000FBE9093E6
:104D60006000FFCF8091C50308959B01BA01909127
:104D70006E049430E9F48F708093E9009FEF809186
:104D8000E800915085FD06C085ED8A95F1F7000099
:104D90009111F5CF8091E80085FF0AC050E040E016
:104DA000C9010E9401298091E8008E778093E80074
:104DB000089543E050E0BC0184E00E94B5260895C8
:104DC00046E050E0BC0184E00E94B5260895CF93F0
:104DD000DF93EC0180912901811111C048E050E07E
:104DE000BE0181E00E94B52680E2FE01A5EAB3E0A3
:104DF00001900D928A95E1F7DF91CF91089580910E
:104E0000C70387FF05C040E284E050E0BE01EACF5F
:104E100048E081E0FACF603231F440E250E0BC017A
:104E200082E00E94B526089580916D04811109C029
:104E30000E94E02A0E943D2B8091E20084608093D2
:104E4000E200089510926D0408950E94A925089526
:104E500060916A0481E0611101C080E00E94A02598
:104E6000089590916E0481E0943009F080E06091A3
:104E70006A040E94A625089542E061EC81E00E9448
:104E80005C2A42E261EC84E00E945C2A42E261EC2E
:104E900082E00E945C2A42E260EC83E00E945C2A8D
:104EA00090916E0481E0943009F080E060916A0492
:104EB0000E949625089580917004833009F463C0A0
:104EC00030F48130E1F1823009F4A0C008958A30D5
:104ED00009F48CC08B3009F471C0893009F052C0DC
:104EE00080916F04813209F04DC0809173049091DC
:104EF0007404009719F0029709F044C08091E8000B
:104F0000877F8093E8008091E80082FF37C090910E
:104F1000F3008091F200029731F48091F10081302A
:104F200011F0863021F48091F1008093C5038091C7
:104F3000E8008B778093E8000E94902A23C080913C
:104F40006F04813AF9F48091E800877F8093E8004C
:104F50008091730490917404892B61F460E285EA76
:104F600093E070E00E949F298091E8008B77809306
:104F7000E800089560E090E080E0F3CF80916E0457
:104F80008111C1CF089580916F04813AD9F7809142
:104F9000730490917404892BA9F78091E800877FAE
:104FA0008093E8008091E80080FFFCCF8091290188
:104FB0008093F1008091E8008E77BCCF80916F04E0
:104FC000813201F78091730490917404892BD1F69A
:104FD0008091E800877F8093E8000E94902A80916A
:104FE0007104809329010E94BC08089580916F0488
:104FF000813241F68091E800877F8093E8000E942B
:10500000902A809172048093C603089580916F0462
:10501000813A09F0B7CF8091E800877F8093E8005C
:105020008091E80080FFFCCF8091C603C1CF84B798
:10503000877F84BF0FB6F894A8958091600088613F
:1050400080936000109260000FBE80E890E00FB681
:10505000F89480936100909361000FBE0E94AF2589
:1050600008950E94E02A0E943D2BE2EEF0E080814C
:105070008460808378940E94BC2D089581E291E041
:105080000E944224089580916E04853031F480910D
:105090006E04853019F00E942A2608950E94FF258B
:1050A00080916C04882399F30E94BC25882379F3AE
:1050B0000E94EB280E94BC08EACFA0E2B0E0E3E641
:1050C000F8E20C94892E80916E04843009F583E017
:1050D0008093E9008091E80082FF1AC08091E80087
:1050E00090E085FF09C050E040E060E270E0CE0152
:1050F00001960E94502991E08091E8008B7780937F
:10510000E800992329F060E2CE0101960E945C1F1D
:10511000A096E2E00C94A52E9A014091750450915E
:1051200076040E9494280895492F5527433051054D
:1051300021F168F44130510509F443C04230510572
:1051400009F444C090E080E050E040E026C04132E5
:10515000510551F142325105A9F76330710590F7BD
:10516000FB01EE0FFF1FEA52FE4F408151816D524D
:105170007E4FFB01808190E010C09927813091051E
:1051800081F0009729F00297E9F6ECEDF5E002C016
:10519000E0E1F6E0849190E0AF01F90151834083B2
:1051A0000895ECEFF5E0F6CF6330710558F6660F21
:1051B000771FFB01E452FE4F4081518189E090E06E
:1051C000ECCF82E190E04FE656E0E7CF8BE590E050
:1051D00044E156E0E2CF80E189BD82E189BD09B4B6
:1051E00000FEFDCF8091D8008F7D8093D800809104
:1051F000E00082608093E0008091E00081FDFCCFC0
:105200000895AF92BF92CF92DF92FF920F931F93B8
:10521000CF93DF936C01EB018A010E94AF2AF82E35
:10522000811123C00115110539F0F80180819181A8
:10523000C81BD90BC80ED91EB12CA12C2097A9F0E0
:105240008091E80085FD22C08091E8008E778093F0
:10525000E80001151105A1F0F80180819181A80EE7
:10526000B91EB182A08285E0F82E8F2DDF91CF91FB
:105270001F910F91FF90DF90CF90BF90AF90089556
:105280000E94AF2A8823D1F2F82EEFCFF601819148
:105290006F018093F1002197FFEFAF1ABF0ACECFC5
:1052A000AF92BF92CF92DF92FF920F931F93CF9353
:1052B000DF936C01EB018A010E94AF2AF82E811165
:1052C00023C00115110539F0F80180819181C81BB7
:1052D000D90BC80ED91EB12CA12C2097A9F0809112
:1052E000E80085FD22C08091E8008B778093E8007C
:1052F00001151105A1F0F80180819181A80EB91E58
:10530000B182A08285E0F82E8F2DDF91CF911F9181
:105310000F91FF90DF90CF90BF90AF9008950E94C3
:10532000AF2A8823D1F2F82EEFCF8091F100F60159
:1053300081936F012197FFEFAF1ABF0ACECFFC0117
:10534000809175049091760486179707A0F06115F7
:10535000710529F49091E8009E779093E80090E021
:105360006115710551F4911108C08091E80082FF28
:1053700034C080E00895BC01F2CF80916E04882390
:10538000C1F18530C1F18091E80083FD30C080918A
:10539000E80082FDEACF8091E80080FFE1CF8091B4
:1053A000F3002091F200382F6115710519F02830B3
:1053B000310558F091E02830310509F090E0209156
:1053C000E8002E772093E800CBCF81918093F10005
:1053D000615071092F5F3F4FE7CF80916E048823A2
:1053E00041F0853041F08091E80083FFBECF81E03D
:1053F000089582E0089583E00895FC01809175048A
:105400009091760486179707A0F06115710529F42D
:105410008091E8008E778093E80090E06115710537
:1054200051F4911108C08091E80082FF35C080E0FE
:105430000895BC01F2CF80916E048823C9F18530B4
:10544000C9F18091E80083FD31C08091E80082FDC0
:10545000EACF8091E80080FFE1CF8091F3002091B6
:10546000F200382F6115710519F02830310558F018
:1054700091E02830310509F090E08091E8008E77C6
:105480008093E800CBCF84918093F10031966150F6
:1054900071092F5F3F4FE6CF80916E04882341F062
:1054A000853041F08091E80083FFBDCF81E0089511
:1054B00082E0089583E00895982F973028F08F7048
:1054C0008093E90081E008959093E900242F762FDE
:1054D00050E0981731F07091EC002091ED00509160
:1054E000F00021FD02C09F5FE8CF3091EB003E7FCE
:1054F0003093EB003091ED003D7F3093ED00309123
:10550000EB0031603093EB007093EC002093ED00E2
:105510005093F0002091EE0027FDE5CF80E0089544
:1055200080916F0487FF13C08091E80082FF06C05E
:105530008091E8008B778093E80004C080916E042E
:105540008111F2CF089580916E048823D9F3809160
:10555000E80080FFF8CF8091E8008E77ECCF2091B3
:10556000E4003091E50095E6A9012091EC00822F3E
:10557000817020FF06C08091E80080FF06C080E0B7
:1055800008952091E80022FD1AC080916E048823BE
:1055900089F0853089F08091EB0085FD0FC0209166
:1055A000E4003091E50042175307F9F29150E1F61B
:1055B00084E0089582E0089583E0089581E00895ED
:1055C0000E944F2B0E94572BE0EEF0E0808181601B
:1055D0008083E8EDF0E080818F77808319BCA7EDB0
:1055E000B0E08C918E7F8C9380818F7E808310922F
:1055F0006D0408950F931F93CF93DF930E944F2B59
:105600000E94572BC8EDD0E088818F7788838881EE
:105610008068888388818F7D888319BC10926E048E
:1056200010926A0410926C0410926B0400EE10E069
:10563000F80180818B7F808388818160888342E04C
:1056400060E080E00E945C2AE1EEF0E080818E7FE5
:105650008083E2EEF0E080818160808380818860D9
:105660008083F80180818E7F808388818061888338
:10567000DF91CF911F910F910895E8EDF0E08081C7
:105680008F7E8083E7EDF0E080818160808384E01D
:1056900082BF81E080936D040E94FA2A0895E8EDAC
:1056A000F0E080818E7F80831092E2000895109256
:1056B000DA001092E10008951F920F920FB60F9238
:1056C00011242F933F934F935F936F937F938F9307
:1056D0009F93AF93BF93EF93FF938091E10082FF7D
:1056E0000BC08091E20082FF07C08091E1008B7FB8
:1056F0008093E1000E94BB2D8091DA0080FF19C0E9
:105700008091D80080FF15C08091DA008E7F809351
:10571000DA008091D90080FF96C080E189BD82E1E6
:1057200089BD09B400FEFDCF81E080936E040E9424
:1057300014278091E10080FF19C08091E20080FF72
:1057400015C08091E2008E7F8093E2008091E2009C
:1057500080618093E2008091D80080628093D800BD
:1057600019BC85E080936E040E9428278091E10097
:1057700084FF2BC08091E20084FF27C080E189BDB7
:1057800082E189BD89B5982F917080FFFBCF809110
:10579000D8008F7D8093D8008091E1008F7E809328
:1057A000E1008091E2008F7E8093E2008091E20030
:1057B00081608093E20080916A04882309F449C0E3
:1057C00084E080936E040E9431278091E10083FF82
:1057D00029C08091E20083FF25C08091E100877F8E
:1057E0008093E10082E080936E0410926A048091BD
:1057F000E1008E7F8093E1008091E2008E7F8093B4
:10580000E2008091E20080618093E20042E060E08B
:1058100080E00E945C2A8091F00088608093F00014
:105820000E942527FF91EF91BF91AF919F918F919A
:105830007F916F915F914F913F912F910F900FBE8C
:105840000F901F90189519BC10926E040E94222789
:1058500070CF8091E30087FD93E090936E04B3CF07
:105860001F920F920FB60F9211242F933F934F93D5
:105870005F936F937F938F939F93AF93BF93CF93D8
:10588000DF93EF93FF93D091E900DF708091EC00FC
:10589000C82FC17080FDC0E81092E9008091F0002F
:1058A000877F8093F00078940E94742C1092E90016
:1058B0008091F00088608093F000CD2BCF70C09372
:1058C000E900FF91EF91DF91CF91BF91AF919F914F
:1058D0008F917F916F915F914F913F912F910F9099
:1058E0000FBE0F901F901895AAE2B0E0EAE7FCE225
:1058F0000C94882E8FE694E02091F100FC01219316
:10590000CF01F4E087379F07B9F70E945B278091AA
:10591000E80083FF1EC180916F04909170049A305B
:1059200008F017C1E92FF0E0E250F04D0C943B2E47
:10593000803899F0823809F00CC1809173048F701F
:10594000873008F006C18093E9008091EB0085FB69
:10595000882780F91092E90006C080916B0490912D
:105960006C04911182609091E800977F9093E80019
:105970008093F1001092F1008091E8008E77E5C0ED
:10598000882309F4D3C0823009F0E3C08091710408
:105990008111D6C0809173048F702FEF280F2630AD
:1059A00008F0D7C08093E9002091EB0020FFC8C029
:1059B000933031F48091EB0080628093EB00C0C0A3
:1059C0009091EB0090619093EB0021E030E001C0FA
:1059D000220F8A95EAF72093EA001092EA0080915C
:1059E000EB008860EACF8111B4C0109171041F7779
:1059F0008091E3008078812B8093E3008091E80020
:105A0000877F8093E8000E94902A8091E80080FFC1
:105A1000FCCF8091E30080688093E30082E0111165
:105A200083E080936E0495C08058823008F091C066
:105A300080917104909172048C3D23E09207A1F54E
:105A400083E08A838AE289834FB7F894DE01139654
:105A500020E03EE051E2E32FF0E050935700E49164
:105A600020FF03C0E295EF703F5FEF708E2F90E054
:105A7000EA30C0F0C7968D939D932F5F243159F77C
:105A80004FBF8091E800877F8093E8006AE270E072
:105A9000CE0101960E949F298091E8008B77809328
:105AA000E80057C0C096E7CF60917304709174040A
:105AB000AE014F5F5F4F0E948C28BC01892B09F417
:105AC00048C09091E800977F9093E80089819A817F
:105AD0000E94FD29E1CF8038E1F58091E800877FC1
